{
  "_format": "hh-sol-artifact-1",
  "contractName": "Domains",
  "sourceName": "contracts/Domain.sol",
  "abi": [
    {
      "inputs": [
        {
          "internalType": "string",
          "name": "_tld",
          "type": "string"
        }
      ],
      "stateMutability": "payable",
      "type": "constructor"
    },
    {
      "inputs": [],
      "name": "AlreadyRegistered",
      "type": "error"
    },
    {
      "inputs": [
        {
          "internalType": "string",
          "name": "name",
          "type": "string"
        }
      ],
      "name": "InvalidName",
      "type": "error"
    },
    {
      "inputs": [],
      "name": "Unauthorized",
      "type": "error"
    },
    {
      "anonymous": false,
      "inputs": [
        {
          "indexed": true,
          "internalType": "address",
          "name": "owner",
          "type": "address"
        },
        {
          "indexed": true,
          "internalType": "address",
          "name": "approved",
          "type": "address"
        },
        {
          "indexed": true,
          "internalType": "uint256",
          "name": "tokenId",
          "type": "uint256"
        }
      ],
      "name": "Approval",
      "type": "event"
    },
    {
      "anonymous": false,
      "inputs": [
        {
          "indexed": true,
          "internalType": "address",
          "name": "owner",
          "type": "address"
        },
        {
          "indexed": true,
          "internalType": "address",
          "name": "operator",
          "type": "address"
        },
        {
          "indexed": false,
          "internalType": "bool",
          "name": "approved",
          "type": "bool"
        }
      ],
      "name": "ApprovalForAll",
      "type": "event"
    },
    {
      "anonymous": false,
      "inputs": [
        {
          "indexed": true,
          "internalType": "address",
          "name": "from",
          "type": "address"
        },
        {
          "indexed": true,
          "internalType": "address",
          "name": "to",
          "type": "address"
        },
        {
          "indexed": true,
          "internalType": "uint256",
          "name": "tokenId",
          "type": "uint256"
        }
      ],
      "name": "Transfer",
      "type": "event"
    },
    {
      "inputs": [
        {
          "internalType": "address",
          "name": "to",
          "type": "address"
        },
        {
          "internalType": "uint256",
          "name": "tokenId",
          "type": "uint256"
        }
      ],
      "name": "approve",
      "outputs": [],
      "stateMutability": "nonpayable",
      "type": "function"
    },
    {
      "inputs": [
        {
          "internalType": "address",
          "name": "owner",
          "type": "address"
        }
      ],
      "name": "balanceOf",
      "outputs": [
        {
          "internalType": "uint256",
          "name": "",
          "type": "uint256"
        }
      ],
      "stateMutability": "view",
      "type": "function"
    },
    {
      "inputs": [
        {
          "internalType": "string",
          "name": "name",
          "type": "string"
        }
      ],
      "name": "getAddress",
      "outputs": [
        {
          "internalType": "address",
          "name": "",
          "type": "address"
        }
      ],
      "stateMutability": "view",
      "type": "function"
    },
    {
      "inputs": [],
      "name": "getAllNames",
      "outputs": [
        {
          "internalType": "string[]",
          "name": "",
          "type": "string[]"
        }
      ],
      "stateMutability": "view",
      "type": "function"
    },
    {
      "inputs": [
        {
          "internalType": "uint256",
          "name": "tokenId",
          "type": "uint256"
        }
      ],
      "name": "getApproved",
      "outputs": [
        {
          "internalType": "address",
          "name": "",
          "type": "address"
        }
      ],
      "stateMutability": "view",
      "type": "function"
    },
    {
      "inputs": [
        {
          "internalType": "string",
          "name": "name",
          "type": "string"
        }
      ],
      "name": "getRecord",
      "outputs": [
        {
          "internalType": "string",
          "name": "",
          "type": "string"
        }
      ],
      "stateMutability": "view",
      "type": "function"
    },
    {
      "inputs": [
        {
          "internalType": "address",
          "name": "owner",
          "type": "address"
        },
        {
          "internalType": "address",
          "name": "operator",
          "type": "address"
        }
      ],
      "name": "isApprovedForAll",
      "outputs": [
        {
          "internalType": "bool",
          "name": "",
          "type": "bool"
        }
      ],
      "stateMutability": "view",
      "type": "function"
    },
    {
      "inputs": [],
      "name": "name",
      "outputs": [
        {
          "internalType": "string",
          "name": "",
          "type": "string"
        }
      ],
      "stateMutability": "view",
      "type": "function"
    },
    {
      "inputs": [],
      "name": "owner",
      "outputs": [
        {
          "internalType": "address payable",
          "name": "",
          "type": "address"
        }
      ],
      "stateMutability": "view",
      "type": "function"
    },
    {
      "inputs": [
        {
          "internalType": "uint256",
          "name": "tokenId",
          "type": "uint256"
        }
      ],
      "name": "ownerOf",
      "outputs": [
        {
          "internalType": "address",
          "name": "",
          "type": "address"
        }
      ],
      "stateMutability": "view",
      "type": "function"
    },
    {
      "inputs": [
        {
          "internalType": "string",
          "name": "name",
          "type": "string"
        }
      ],
      "name": "price",
      "outputs": [
        {
          "internalType": "uint256",
          "name": "",
          "type": "uint256"
        }
      ],
      "stateMutability": "pure",
      "type": "function"
    },
    {
      "inputs": [
        {
          "internalType": "string",
          "name": "name",
          "type": "string"
        }
      ],
      "name": "register",
      "outputs": [],
      "stateMutability": "payable",
      "type": "function"
    },
    {
      "inputs": [
        {
          "internalType": "address",
          "name": "from",
          "type": "address"
        },
        {
          "internalType": "address",
          "name": "to",
          "type": "address"
        },
        {
          "internalType": "uint256",
          "name": "tokenId",
          "type": "uint256"
        }
      ],
      "name": "safeTransferFrom",
      "outputs": [],
      "stateMutability": "nonpayable",
      "type": "function"
    },
    {
      "inputs": [
        {
          "internalType": "address",
          "name": "from",
          "type": "address"
        },
        {
          "internalType": "address",
          "name": "to",
          "type": "address"
        },
        {
          "internalType": "uint256",
          "name": "tokenId",
          "type": "uint256"
        },
        {
          "internalType": "bytes",
          "name": "_data",
          "type": "bytes"
        }
      ],
      "name": "safeTransferFrom",
      "outputs": [],
      "stateMutability": "nonpayable",
      "type": "function"
    },
    {
      "inputs": [
        {
          "internalType": "address",
          "name": "operator",
          "type": "address"
        },
        {
          "internalType": "bool",
          "name": "approved",
          "type": "bool"
        }
      ],
      "name": "setApprovalForAll",
      "outputs": [],
      "stateMutability": "nonpayable",
      "type": "function"
    },
    {
      "inputs": [
        {
          "internalType": "string",
          "name": "name",
          "type": "string"
        },
        {
          "internalType": "string",
          "name": "record",
          "type": "string"
        }
      ],
      "name": "setRecord",
      "outputs": [],
      "stateMutability": "nonpayable",
      "type": "function"
    },
    {
      "inputs": [
        {
          "internalType": "bytes4",
          "name": "interfaceId",
          "type": "bytes4"
        }
      ],
      "name": "supportsInterface",
      "outputs": [
        {
          "internalType": "bool",
          "name": "",
          "type": "bool"
        }
      ],
      "stateMutability": "view",
      "type": "function"
    },
    {
      "inputs": [],
      "name": "symbol",
      "outputs": [
        {
          "internalType": "string",
          "name": "",
          "type": "string"
        }
      ],
      "stateMutability": "view",
      "type": "function"
    },
    {
      "inputs": [],
      "name": "tld",
      "outputs": [
        {
          "internalType": "string",
          "name": "",
          "type": "string"
        }
      ],
      "stateMutability": "view",
      "type": "function"
    },
    {
      "inputs": [
        {
          "internalType": "uint256",
          "name": "tokenId",
          "type": "uint256"
        }
      ],
      "name": "tokenURI",
      "outputs": [
        {
          "internalType": "string",
          "name": "",
          "type": "string"
        }
      ],
      "stateMutability": "view",
      "type": "function"
    },
    {
      "inputs": [
        {
          "internalType": "address",
          "name": "from",
          "type": "address"
        },
        {
          "internalType": "address",
          "name": "to",
          "type": "address"
        },
        {
          "internalType": "uint256",
          "name": "tokenId",
          "type": "uint256"
        }
      ],
      "name": "transferFrom",
      "outputs": [],
      "stateMutability": "nonpayable",
      "type": "function"
    },
    {
      "inputs": [
        {
          "internalType": "string",
          "name": "name",
          "type": "string"
        }
      ],
      "name": "valid",
      "outputs": [
        {
          "internalType": "bool",
          "name": "",
          "type": "bool"
        }
      ],
      "stateMutability": "pure",
      "type": "function"
    },
    {
      "inputs": [],
      "name": "withdraw",
      "outputs": [],
      "stateMutability": "nonpayable",
      "type": "function"
    }
  ],
  "bytecode": "0x6080604052604051806108a0016040528061086b81526020016200514861086b9139600c9080519060200190620000389291906200035a565b506040518060400160405280600d81526020017f3c2f746578743e3c2f7376673e00000000000000000000000000000000000000815250600d9080519060200190620000869291906200035a565b50604051620059b3380380620059b38339818101604052810190620000ac91906200047c565b6040518060400160405280601081526020017f466c79204e616d652053657276696365000000000000000000000000000000008152506040518060400160405280600381526020017f464e5300000000000000000000000000000000000000000000000000000000008152508160009080519060200190620001309291906200035a565b508060019080519060200190620001499291906200035a565b50505033600e60006101000a81548173ffffffffffffffffffffffffffffffffffffffff021916908373ffffffffffffffffffffffffffffffffffffffff1602179055508060079080519060200190620001a59291906200035a565b50620002846040518060400160405280601881526020017f2573206e616d652073657276696365206465706c6f796564000000000000000081525060078054620001ef90620005ee565b80601f01602080910402602001604051908101604052809291908181526020018280546200021d90620005ee565b80156200026e5780601f1062000242576101008083540402835291602001916200026e565b820191906000526020600020905b8154815290600101906020018083116200025057829003601f168201915b50505050506200028b60201b620019f11760201c565b50620006c9565b6200032d8282604051602401620002a492919062000502565b6040516020818303038152906040527f4b5c4277000000000000000000000000000000000000000000000000000000007bffffffffffffffffffffffffffffffffffffffffffffffffffffffff19166020820180517bffffffffffffffffffffffffffffffffffffffffffffffffffffffff83818316178352505050506200033160201b60201c565b5050565b60008151905060006a636f6e736f6c652e6c6f679050602083016000808483855afa5050505050565b8280546200036890620005ee565b90600052602060002090601f0160209004810192826200038c5760008555620003d8565b82601f10620003a757805160ff1916838001178555620003d8565b82800160010185558215620003d8579182015b82811115620003d7578251825591602001919060010190620003ba565b5b509050620003e79190620003eb565b5090565b5b8082111562000406576000816000905550600101620003ec565b5090565b6000620004216200041b8462000566565b6200053d565b9050828152602081018484840111156200043a57600080fd5b62000447848285620005b8565b509392505050565b600082601f8301126200046157600080fd5b8151620004738482602086016200040a565b91505092915050565b6000602082840312156200048f57600080fd5b600082015167ffffffffffffffff811115620004aa57600080fd5b620004b8848285016200044f565b91505092915050565b6000620004ce826200059c565b620004da8185620005a7565b9350620004ec818560208601620005b8565b620004f781620006b8565b840191505092915050565b600060408201905081810360008301526200051e8185620004c1565b90508181036020830152620005348184620004c1565b90509392505050565b6000620005496200055c565b905062000557828262000624565b919050565b6000604051905090565b600067ffffffffffffffff82111562000584576200058362000689565b5b6200058f82620006b8565b9050602081019050919050565b600081519050919050565b600082825260208201905092915050565b60005b83811015620005d8578082015181840152602081019050620005bb565b83811115620005e8576000848401525b50505050565b600060028204905060018216806200060757607f821691505b602082108114156200061e576200061d6200065a565b5b50919050565b6200062f82620006b8565b810181811067ffffffffffffffff8211171562000651576200065062000689565b5b80604052505050565b7f4e487b7100000000000000000000000000000000000000000000000000000000600052602260045260246000fd5b7f4e487b7100000000000000000000000000000000000000000000000000000000600052604160045260246000fd5b6000601f19601f8301169050919050565b614a6f80620006d96000396000f3fe6080604052600436106101405760003560e01c80638da5cb5b116100b6578063c1880a981161006f578063c1880a9814610480578063c87b56dd146104a9578063e985e9c5146104e6578063f2c298be14610523578063fb825e5f1461053f578063fe2c61981461056a57610140565b80638da5cb5b1461035e57806395d89b41146103895780639791c097146103b4578063a22cb465146103f1578063b88d4fde1461041a578063bf40fac11461044357610140565b806323b872dd1161010857806323b872dd146102505780632d551432146102795780633ccfd60b146102a457806342842e0e146102bb5780636352211e146102e457806370a082311461032157610140565b806301ffc9a71461014557806306fdde0314610182578063081812fc146101ad578063095ea7b3146101ea57806311dd884514610213575b600080fd5b34801561015157600080fd5b5061016c600480360381019061016791906131d0565b6105a7565b6040516101799190613ab9565b60405180910390f35b34801561018e57600080fd5b50610197610689565b6040516101a49190613af8565b60405180910390f35b3480156101b957600080fd5b506101d460048036038101906101cf91906132dc565b61071b565b6040516101e19190613a15565b60405180910390f35b3480156101f657600080fd5b50610211600480360381019061020c9190613194565b6107a0565b005b34801561021f57600080fd5b5061023a60048036038101906102359190613222565b6108b8565b6040516102479190613af8565b60405180910390f35b34801561025c57600080fd5b506102776004803603810190610272919061308e565b61096b565b005b34801561028557600080fd5b5061028e6109cb565b60405161029b9190613af8565b60405180910390f35b3480156102b057600080fd5b506102b9610a59565b005b3480156102c757600080fd5b506102e260048036038101906102dd919061308e565b610b68565b005b3480156102f057600080fd5b5061030b600480360381019061030691906132dc565b610b88565b6040516103189190613a15565b60405180910390f35b34801561032d57600080fd5b5061034860048036038101906103439190613029565b610c3a565b6040516103559190613e1b565b60405180910390f35b34801561036a57600080fd5b50610373610cf2565b6040516103809190613a30565b60405180910390f35b34801561039557600080fd5b5061039e610d18565b6040516103ab9190613af8565b60405180910390f35b3480156103c057600080fd5b506103db60048036038101906103d69190613222565b610daa565b6040516103e89190613ab9565b60405180910390f35b3480156103fd57600080fd5b5061041860048036038101906104139190613158565b610e5e565b005b34801561042657600080fd5b50610441600480360381019061043c91906130dd565b610e74565b005b34801561044f57600080fd5b5061046a60048036038101906104659190613222565b610ed6565b6040516104779190613a15565b60405180910390f35b34801561048c57600080fd5b506104a760048036038101906104a29190613267565b610f21565b005b3480156104b557600080fd5b506104d060048036038101906104cb91906132dc565b611078565b6040516104dd9190613af8565b60405180910390f35b3480156104f257600080fd5b5061050d60048036038101906105089190613052565b6111ca565b60405161051a9190613ab9565b60405180910390f35b61053d60048036038101906105389190613222565b61125e565b005b34801561054b57600080fd5b50610554611798565b6040516105619190613a97565b60405180910390f35b34801561057657600080fd5b50610591600480360381019061058c9190613222565b61194b565b60405161059e9190613e1b565b60405180910390f35b60007f80ac58cd000000000000000000000000000000000000000000000000000000007bffffffffffffffffffffffffffffffffffffffffffffffffffffffff1916827bffffffffffffffffffffffffffffffffffffffffffffffffffffffff1916148061067257507f5b5e139f000000000000000000000000000000000000000000000000000000007bffffffffffffffffffffffffffffffffffffffffffffffffffffffff1916827bffffffffffffffffffffffffffffffffffffffffffffffffffffffff1916145b80610682575061068182611a8d565b5b9050919050565b60606000805461069890614116565b80601f01602080910402602001604051908101604052809291908181526020018280546106c490614116565b80156107115780601f106106e657610100808354040283529160200191610711565b820191906000526020600020905b8154815290600101906020018083116106f457829003601f168201915b5050505050905090565b600061072682611af7565b610765576040517f08c379a000000000000000000000000000000000000000000000000000000000815260040161075c90613d9b565b60405180910390fd5b6004600083815260200190815260200160002060009054906101000a900473ffffffffffffffffffffffffffffffffffffffff169050919050565b60006107ab82610b88565b90508073ffffffffffffffffffffffffffffffffffffffff168373ffffffffffffffffffffffffffffffffffffffff16141561081c576040517f08c379a000000000000000000000000000000000000000000000000000000000815260040161081390613ddb565b60405180910390fd5b8073ffffffffffffffffffffffffffffffffffffffff1661083b611b63565b73ffffffffffffffffffffffffffffffffffffffff16148061086a575061086981610864611b63565b6111ca565b5b6108a9576040517f08c379a00000000000000000000000000000000000000000000000000000000081526004016108a090613cdb565b60405180910390fd5b6108b38383611b6b565b505050565b6060600b83836040516108cc9291906138e2565b908152602001604051809103902080546108e590614116565b80601f016020809104026020016040519081016040528092919081815260200182805461091190614116565b801561095e5780601f106109335761010080835404028352916020019161095e565b820191906000526020600020905b81548152906001019060200180831161094157829003601f168201915b5050505050905092915050565b61097c610976611b63565b82611c24565b6109bb576040517f08c379a00000000000000000000000000000000000000000000000000000000081526004016109b290613dfb565b60405180910390fd5b6109c6838383611d02565b505050565b600780546109d890614116565b80601f0160208091040260200160405190810160405280929190818152602001828054610a0490614116565b8015610a515780601f10610a2657610100808354040283529160200191610a51565b820191906000526020600020905b815481529060010190602001808311610a3457829003601f168201915b505050505081565b600e60009054906101000a900473ffffffffffffffffffffffffffffffffffffffff1673ffffffffffffffffffffffffffffffffffffffff163373ffffffffffffffffffffffffffffffffffffffff1614610ab357600080fd5b600047905060003373ffffffffffffffffffffffffffffffffffffffff1682604051610ade90613a00565b60006040518083038185875af1925050503d8060008114610b1b576040519150601f19603f3d011682016040523d82523d6000602084013e610b20565b606091505b5050905080610b64576040517f08c379a0000000000000000000000000000000000000000000000000000000008152600401610b5b90613bfb565b60405180910390fd5b5050565b610b8383838360405180602001604052806000815250610e74565b505050565b6000806002600084815260200190815260200160002060009054906101000a900473ffffffffffffffffffffffffffffffffffffffff169050600073ffffffffffffffffffffffffffffffffffffffff168173ffffffffffffffffffffffffffffffffffffffff161415610c31576040517f08c379a0000000000000000000000000000000000000000000000000000000008152600401610c2890613d1b565b60405180910390fd5b80915050919050565b60008073ffffffffffffffffffffffffffffffffffffffff168273ffffffffffffffffffffffffffffffffffffffff161415610cab576040517f08c379a0000000000000000000000000000000000000000000000000000000008152600401610ca290613cfb565b60405180910390fd5b600360008373ffffffffffffffffffffffffffffffffffffffff1673ffffffffffffffffffffffffffffffffffffffff168152602001908152602001600020549050919050565b600e60009054906101000a900473ffffffffffffffffffffffffffffffffffffffff1681565b606060018054610d2790614116565b80601f0160208091040260200160405190810160405280929190818152602001828054610d5390614116565b8015610da05780601f10610d7557610100808354040283529160200191610da0565b820191906000526020600020905b815481529060010190602001808311610d8357829003601f168201915b5050505050905090565b60006003610dfb84848080601f016020809104026020016040519081016040528093929190818152602001838380828437600081840152601f19601f82011690508083019250505050505050611f69565b10158015610e565750600a610e5384848080601f016020809104026020016040519081016040528093929190818152602001838380828437600081840152601f19601f82011690508083019250505050505050611f69565b11155b905092915050565b610e70610e69611b63565b8383612144565b5050565b610e85610e7f611b63565b83611c24565b610ec4576040517f08c379a0000000000000000000000000000000000000000000000000000000008152600401610ebb90613dfb565b60405180910390fd5b610ed0848484846122b1565b50505050565b6000600a8383604051610eea9291906138e2565b908152602001604051809103902060009054906101000a900473ffffffffffffffffffffffffffffffffffffffff16905092915050565b8383600a8282604051610f359291906138e2565b908152602001604051809103902060009054906101000a900473ffffffffffffffffffffffffffffffffffffffff1673ffffffffffffffffffffffffffffffffffffffff163373ffffffffffffffffffffffffffffffffffffffff1614610f9b57600080fd5b600a8686604051610fad9291906138e2565b908152602001604051809103902060009054906101000a900473ffffffffffffffffffffffffffffffffffffffff1673ffffffffffffffffffffffffffffffffffffffff163373ffffffffffffffffffffffffffffffffffffffff1614611040576040517f82b4290000000000000000000000000000000000000000000000000000000000815260040160405180910390fd5b8383600b88886040516110549291906138e2565b9081526020016040518091039020919061106f929190612de5565b50505050505050565b606061108382611af7565b6110c2576040517f08c379a00000000000000000000000000000000000000000000000000000000081526004016110b990613d7b565b60405180910390fd5b60006006600084815260200190815260200160002080546110e290614116565b80601f016020809104026020016040519081016040528092919081815260200182805461110e90614116565b801561115b5780601f106111305761010080835404028352916020019161115b565b820191906000526020600020905b81548152906001019060200180831161113e57829003601f168201915b50505050509050600061116c61230d565b90506000815114156111825781925050506111c5565b6000825111156111b757808260405160200161119f92919061392c565b604051602081830303815290604052925050506111c5565b6111c084612324565b925050505b919050565b6000600560008473ffffffffffffffffffffffffffffffffffffffff1673ffffffffffffffffffffffffffffffffffffffff16815260200190815260200160002060008373ffffffffffffffffffffffffffffffffffffffff1673ffffffffffffffffffffffffffffffffffffffff16815260200190815260200160002060009054906101000a900460ff16905092915050565b8181600073ffffffffffffffffffffffffffffffffffffffff16600a838360405161128a9291906138e2565b908152602001604051809103902060009054906101000a900473ffffffffffffffffffffffffffffffffffffffff1673ffffffffffffffffffffffffffffffffffffffff16146112d957600080fd5b600073ffffffffffffffffffffffffffffffffffffffff16600a85856040516113039291906138e2565b908152602001604051809103902060009054906101000a900473ffffffffffffffffffffffffffffffffffffffff1673ffffffffffffffffffffffffffffffffffffffff161461137f576040517f3a81d6fc00000000000000000000000000000000000000000000000000000000815260040160405180910390fd5b6113898484610daa565b6113cc5783836040517f7f19f48d0000000000000000000000000000000000000000000000000000000081526004016113c3929190613ad4565b60405180910390fd5b60006113d8858561194b565b90508034101561141d576040517f08c379a000000000000000000000000000000000000000000000000000000000815260040161141490613bdb565b60405180910390fd5b600085856007604051602001611435939291906138fb565b60405160208183030381529060405290506000600c82600d60405160200161145f93929190613950565b6040516020818303038152906040529050600061147c60086123cb565b905060006114cd89898080601f016020809104026020016040519081016040528093929190818152602001838380828437600081840152601f19601f82011690508083019250505050505050611f69565b905060006114da826123d9565b90506115ce60405180606001604052806033815260200161496b603391398b8b8080601f016020809104026020016040519081016040528093929190818152602001838380828437600081840152601f19601f820116905080830192505050505050506007805461154a90614116565b80601f016020809104026020016040519081016040528092919081815260200182805461157690614116565b80156115c35780601f10611598576101008083540402835291602001916115c3565b820191906000526020600020905b8154815290600101906020018083116115a657829003601f168201915b505050505086612586565b6000611604866115dd87612628565b846040516020016115f093929190613981565b604051602081830303815290604052612628565b905060008160405160200161161991906139de565b604051602081830303815290604052905061164b604051806060016040528060398152602001614932603991396127e6565b61168a6040518060400160405280600e81526020017f46696e616c20746f6b656e555249000000000000000000000000000000000000815250826119f1565b6116ab60405180606001604052806039815260200161499e603991396127e6565b6116b5338661287f565b6116bf858261289d565b33600a8d8d6040516116d29291906138e2565b908152602001604051809103902060006101000a81548173ffffffffffffffffffffffffffffffffffffffff021916908373ffffffffffffffffffffffffffffffffffffffff16021790555061175d6040518060400160405280601a81526020017f2573206861732072656769737465726564206120646f6d61696e00000000000081525033612911565b8b8b60096000888152602001908152602001600020919061177f929190612de5565b5061178a60086129ad565b505050505050505050505050565b60606117bb604051806060016040528060238152602001614a17602391396127e6565b60006117c760086123cb565b67ffffffffffffffff811115611806577f4e487b7100000000000000000000000000000000000000000000000000000000600052604160045260246000fd5b60405190808252806020026020018201604052801561183957816020015b60608152602001906001900390816118245790505b50905060005b61184960086123cb565b8110156119435760096000828152602001908152602001600020805461186e90614116565b80601f016020809104026020016040519081016040528092919081815260200182805461189a90614116565b80156118e75780601f106118bc576101008083540402835291602001916118e7565b820191906000526020600020905b8154815290600101906020018083116118ca57829003601f168201915b5050505050828281518110611925577f4e487b7100000000000000000000000000000000000000000000000000000000600052603260045260246000fd5b6020026020010181905250808061193b90614179565b91505061183f565b508091505090565b60008061199b84848080601f016020809104026020016040519081016040528093929190818152602001838380828437600081840152601f19601f82011690508083019250505050505050611f69565b9050600081116119aa57600080fd5b60038114156119c4576706f05b59d3b200009150506119eb565b60048114156119de57670429d069189e00009150506119eb565b67016345785d8a00009150505b92915050565b611a898282604051602401611a07929190613b4a565b6040516020818303038152906040527f4b5c4277000000000000000000000000000000000000000000000000000000007bffffffffffffffffffffffffffffffffffffffffffffffffffffffff19166020820180517bffffffffffffffffffffffffffffffffffffffffffffffffffffffff83818316178352505050506129c3565b5050565b60007f01ffc9a7000000000000000000000000000000000000000000000000000000007bffffffffffffffffffffffffffffffffffffffffffffffffffffffff1916827bffffffffffffffffffffffffffffffffffffffffffffffffffffffff1916149050919050565b60008073ffffffffffffffffffffffffffffffffffffffff166002600084815260200190815260200160002060009054906101000a900473ffffffffffffffffffffffffffffffffffffffff1673ffffffffffffffffffffffffffffffffffffffff1614159050919050565b600033905090565b816004600083815260200190815260200160002060006101000a81548173ffffffffffffffffffffffffffffffffffffffff021916908373ffffffffffffffffffffffffffffffffffffffff160217905550808273ffffffffffffffffffffffffffffffffffffffff16611bde83610b88565b73ffffffffffffffffffffffffffffffffffffffff167f8c5be1e5ebec7d5bd14f71427d1e84f3dd0314c0f7b2291e5b200ac8c7c3b92560405160405180910390a45050565b6000611c2f82611af7565b611c6e576040517f08c379a0000000000000000000000000000000000000000000000000000000008152600401611c6590613cbb565b60405180910390fd5b6000611c7983610b88565b90508073ffffffffffffffffffffffffffffffffffffffff168473ffffffffffffffffffffffffffffffffffffffff161480611ce857508373ffffffffffffffffffffffffffffffffffffffff16611cd08461071b565b73ffffffffffffffffffffffffffffffffffffffff16145b80611cf95750611cf881856111ca565b5b91505092915050565b8273ffffffffffffffffffffffffffffffffffffffff16611d2282610b88565b73ffffffffffffffffffffffffffffffffffffffff1614611d78576040517f08c379a0000000000000000000000000000000000000000000000000000000008152600401611d6f90613c3b565b60405180910390fd5b600073ffffffffffffffffffffffffffffffffffffffff168273ffffffffffffffffffffffffffffffffffffffff161415611de8576040517f08c379a0000000000000000000000000000000000000000000000000000000008152600401611ddf90613c7b565b60405180910390fd5b611df38383836129ec565b611dfe600082611b6b565b6001600360008573ffffffffffffffffffffffffffffffffffffffff1673ffffffffffffffffffffffffffffffffffffffff1681526020019081526020016000206000828254611e4e919061401a565b925050819055506001600360008473ffffffffffffffffffffffffffffffffffffffff1673ffffffffffffffffffffffffffffffffffffffff1681526020019081526020016000206000828254611ea59190613f39565b92505081905550816002600083815260200190815260200160002060006101000a81548173ffffffffffffffffffffffffffffffffffffffff021916908373ffffffffffffffffffffffffffffffffffffffff160217905550808273ffffffffffffffffffffffffffffffffffffffff168473ffffffffffffffffffffffffffffffffffffffff167fddf252ad1be2c89b69c2b068fc378daa952ba7f163c4a11628f55a4df523b3ef60405160405180910390a4611f648383836129f1565b505050565b60008060008084519050600092505b80821015612139576000858381518110611fbb577f4e487b7100000000000000000000000000000000000000000000000000000000600052603260045260246000fd5b602001015160f81c60f81b9050608060f81b817effffffffffffffffffffffffffffffffffffffffffffffffffffffffffffff1916101561200a576001836120039190613f39565b9250612125565b60e060f81b817effffffffffffffffffffffffffffffffffffffffffffffffffffffffffffff1916101561204c576002836120459190613f39565b9250612124565b60f060f81b817effffffffffffffffffffffffffffffffffffffffffffffffffffffffffffff1916101561208e576003836120879190613f39565b9250612123565b60f8801b817effffffffffffffffffffffffffffffffffffffffffffffffffffffffffffff191610156120cf576004836120c89190613f39565b9250612122565b60fc60f81b817effffffffffffffffffffffffffffffffffffffffffffffffffffffffffffff191610156121115760058361210a9190613f39565b9250612121565b60068361211e9190613f39565b92505b5b5b5b5b50828061213190614179565b935050611f78565b829350505050919050565b8173ffffffffffffffffffffffffffffffffffffffff168373ffffffffffffffffffffffffffffffffffffffff1614156121b3576040517f08c379a00000000000000000000000000000000000000000000000000000000081526004016121aa90613c9b565b60405180910390fd5b80600560008573ffffffffffffffffffffffffffffffffffffffff1673ffffffffffffffffffffffffffffffffffffffff16815260200190815260200160002060008473ffffffffffffffffffffffffffffffffffffffff1673ffffffffffffffffffffffffffffffffffffffff16815260200190815260200160002060006101000a81548160ff0219169083151502179055508173ffffffffffffffffffffffffffffffffffffffff168373ffffffffffffffffffffffffffffffffffffffff167f17307eab39ab6107e8899845ad3d59bd9653f200f220920489ca2b5937696c31836040516122a49190613ab9565b60405180910390a3505050565b6122bc848484611d02565b6122c8848484846129f6565b612307576040517f08c379a00000000000000000000000000000000000000000000000000000000081526004016122fe90613c1b565b60405180910390fd5b50505050565b606060405180602001604052806000815250905090565b606061232f82611af7565b61236e576040517f08c379a000000000000000000000000000000000000000000000000000000000815260040161236590613dbb565b60405180910390fd5b600061237861230d565b9050600081511161239857604051806020016040528060008152506123c3565b806123a2846123d9565b6040516020016123b392919061392c565b6040516020818303038152906040525b915050919050565b600081600001549050919050565b60606000821415612421576040518060400160405280600181526020017f30000000000000000000000000000000000000000000000000000000000000008152509050612581565b600082905060005b6000821461245357808061243c90614179565b915050600a8261244c9190613f8f565b9150612429565b60008167ffffffffffffffff811115612495577f4e487b7100000000000000000000000000000000000000000000000000000000600052604160045260246000fd5b6040519080825280601f01601f1916602001820160405280156124c75781602001600182028036833780820191505090505b5090505b6000851461257a576001826124e0919061401a565b9150600a856124ef91906141c2565b60306124fb9190613f39565b60f81b818381518110612537577f4e487b7100000000000000000000000000000000000000000000000000000000600052603260045260246000fd5b60200101907effffffffffffffffffffffffffffffffffffffffffffffffffffffffffffff1916908160001a905350600a856125739190613f8f565b94506124cb565b8093505050505b919050565b612622848484846040516024016125a09493929190613b81565b6040516020818303038152906040527f9fd009f5000000000000000000000000000000000000000000000000000000007bffffffffffffffffffffffffffffffffffffffffffffffffffffffff19166020820180517bffffffffffffffffffffffffffffffffffffffffffffffffffffffff83818316178352505050506129c3565b50505050565b6060600082519050600081141561265157604051806020016040528060008152509150506127e1565b600060036002836126629190613f39565b61266c9190613f8f565b60046126789190613fc0565b905060006020826126899190613f39565b67ffffffffffffffff8111156126c8577f4e487b7100000000000000000000000000000000000000000000000000000000600052604160045260246000fd5b6040519080825280601f01601f1916602001820160405280156126fa5781602001600182028036833780820191505090505b50905060006040518060600160405280604081526020016149d7604091399050600181016020830160005b8681101561279e5760038101905062ffffff818a015116603f8160121c168401518060081b905060ff603f83600c1c1686015116810190508060081b905060ff603f8360061c1686015116810190508060081b905060ff603f831686015116810190508060e01b90508084526004840193505050612725565b5060038606600181146127b857600281146127c8576127d3565b613d3d60f01b60028303526127d3565b603d60f81b60018303525b508484525050819450505050505b919050565b61287c816040516024016127fa9190613af8565b6040516020818303038152906040527f41304fac000000000000000000000000000000000000000000000000000000007bffffffffffffffffffffffffffffffffffffffffffffffffffffffff19166020820180517bffffffffffffffffffffffffffffffffffffffffffffffffffffffff83818316178352505050506129c3565b50565b612899828260405180602001604052806000815250612b8d565b5050565b6128a682611af7565b6128e5576040517f08c379a00000000000000000000000000000000000000000000000000000000081526004016128dc90613d3b565b60405180910390fd5b8060066000848152602001908152602001600020908051906020019061290c929190612e6b565b505050565b6129a98282604051602401612927929190613b1a565b6040516020818303038152906040527f319af333000000000000000000000000000000000000000000000000000000007bffffffffffffffffffffffffffffffffffffffffffffffffffffffff19166020820180517bffffffffffffffffffffffffffffffffffffffffffffffffffffffff83818316178352505050506129c3565b5050565b6001816000016000828254019250508190555050565b60008151905060006a636f6e736f6c652e6c6f679050602083016000808483855afa5050505050565b505050565b505050565b6000612a178473ffffffffffffffffffffffffffffffffffffffff16612be8565b15612b80578373ffffffffffffffffffffffffffffffffffffffff1663150b7a02612a40611b63565b8786866040518563ffffffff1660e01b8152600401612a629493929190613a4b565b602060405180830381600087803b158015612a7c57600080fd5b505af1925050508015612aad57506040513d601f19601f82011682018060405250810190612aaa91906131f9565b60015b612b30573d8060008114612add576040519150601f19603f3d011682016040523d82523d6000602084013e612ae2565b606091505b50600081511415612b28576040517f08c379a0000000000000000000000000000000000000000000000000000000008152600401612b1f90613c1b565b60405180910390fd5b805181602001fd5b63150b7a0260e01b7bffffffffffffffffffffffffffffffffffffffffffffffffffffffff1916817bffffffffffffffffffffffffffffffffffffffffffffffffffffffff191614915050612b85565b600190505b949350505050565b612b978383612c0b565b612ba460008484846129f6565b612be3576040517f08c379a0000000000000000000000000000000000000000000000000000000008152600401612bda90613c1b565b60405180910390fd5b505050565b6000808273ffffffffffffffffffffffffffffffffffffffff163b119050919050565b600073ffffffffffffffffffffffffffffffffffffffff168273ffffffffffffffffffffffffffffffffffffffff161415612c7b576040517f08c379a0000000000000000000000000000000000000000000000000000000008152600401612c7290613d5b565b60405180910390fd5b612c8481611af7565b15612cc4576040517f08c379a0000000000000000000000000000000000000000000000000000000008152600401612cbb90613c5b565b60405180910390fd5b612cd0600083836129ec565b6001600360008473ffffffffffffffffffffffffffffffffffffffff1673ffffffffffffffffffffffffffffffffffffffff1681526020019081526020016000206000828254612d209190613f39565b92505081905550816002600083815260200190815260200160002060006101000a81548173ffffffffffffffffffffffffffffffffffffffff021916908373ffffffffffffffffffffffffffffffffffffffff160217905550808273ffffffffffffffffffffffffffffffffffffffff16600073ffffffffffffffffffffffffffffffffffffffff167fddf252ad1be2c89b69c2b068fc378daa952ba7f163c4a11628f55a4df523b3ef60405160405180910390a4612de1600083836129f1565b5050565b828054612df190614116565b90600052602060002090601f016020900481019282612e135760008555612e5a565b82601f10612e2c57803560ff1916838001178555612e5a565b82800160010185558215612e5a579182015b82811115612e59578235825591602001919060010190612e3e565b5b509050612e679190612ef1565b5090565b828054612e7790614116565b90600052602060002090601f016020900481019282612e995760008555612ee0565b82601f10612eb257805160ff1916838001178555612ee0565b82800160010185558215612ee0579182015b82811115612edf578251825591602001919060010190612ec4565b5b509050612eed9190612ef1565b5090565b5b80821115612f0a576000816000905550600101612ef2565b5090565b6000612f21612f1c84613e5b565b613e36565b905082815260208101848484011115612f3957600080fd5b612f448482856140d4565b509392505050565b600081359050612f5b816148d5565b92915050565b600081359050612f70816148ec565b92915050565b600081359050612f8581614903565b92915050565b600081519050612f9a81614903565b92915050565b600082601f830112612fb157600080fd5b8135612fc1848260208601612f0e565b91505092915050565b60008083601f840112612fdc57600080fd5b8235905067ffffffffffffffff811115612ff557600080fd5b60208301915083600182028301111561300d57600080fd5b9250929050565b6000813590506130238161491a565b92915050565b60006020828403121561303b57600080fd5b600061304984828501612f4c565b91505092915050565b6000806040838503121561306557600080fd5b600061307385828601612f4c565b925050602061308485828601612f4c565b9150509250929050565b6000806000606084860312156130a357600080fd5b60006130b186828701612f4c565b93505060206130c286828701612f4c565b92505060406130d386828701613014565b9150509250925092565b600080600080608085870312156130f357600080fd5b600061310187828801612f4c565b945050602061311287828801612f4c565b935050604061312387828801613014565b925050606085013567ffffffffffffffff81111561314057600080fd5b61314c87828801612fa0565b91505092959194509250565b6000806040838503121561316b57600080fd5b600061317985828601612f4c565b925050602061318a85828601612f61565b9150509250929050565b600080604083850312156131a757600080fd5b60006131b585828601612f4c565b92505060206131c685828601613014565b9150509250929050565b6000602082840312156131e257600080fd5b60006131f084828501612f76565b91505092915050565b60006020828403121561320b57600080fd5b600061321984828501612f8b565b91505092915050565b6000806020838503121561323557600080fd5b600083013567ffffffffffffffff81111561324f57600080fd5b61325b85828601612fca565b92509250509250929050565b6000806000806040858703121561327d57600080fd5b600085013567ffffffffffffffff81111561329757600080fd5b6132a387828801612fca565b9450945050602085013567ffffffffffffffff8111156132c257600080fd5b6132ce87828801612fca565b925092505092959194509250565b6000602082840312156132ee57600080fd5b60006132fc84828501613014565b91505092915050565b60006133118383613446565b905092915050565b61332281614060565b82525050565b6133318161404e565b82525050565b600061334282613eb1565b61334c8185613edf565b93508360208202850161335e85613e8c565b8060005b8581101561339a578484038952815161337b8582613305565b945061338683613ed2565b925060208a01995050600181019050613362565b50829750879550505050505092915050565b6133b581614072565b82525050565b60006133c682613ebc565b6133d08185613ef0565b93506133e08185602086016140e3565b6133e9816142af565b840191505092915050565b60006134008385613f1d565b935061340d8385846140d4565b613416836142af565b840190509392505050565b600061342d8385613f2e565b935061343a8385846140d4565b82840190509392505050565b600061345182613ec7565b61345b8185613f0c565b935061346b8185602086016140e3565b613474816142af565b840191505092915050565b600061348a82613ec7565b6134948185613f1d565b93506134a48185602086016140e3565b6134ad816142af565b840191505092915050565b60006134c382613ec7565b6134cd8185613f2e565b93506134dd8185602086016140e3565b80840191505092915050565b600081546134f681614116565b6135008186613f2e565b9450600182166000811461351b576001811461352c5761355f565b60ff1983168652818601935061355f565b61353585613e9c565b60005b8381101561355757815481890152600182019150602081019050613538565b838801955050505b50505092915050565b6000613575601083613f1d565b9150613580826142c0565b602082019050919050565b6000613598601883613f1d565b91506135a3826142e9565b602082019050919050565b60006135bb603283613f1d565b91506135c682614312565b604082019050919050565b60006135de602583613f1d565b91506135e982614361565b604082019050919050565b6000613601601c83613f1d565b915061360c826143b0565b602082019050919050565b6000613624602483613f1d565b915061362f826143d9565b604082019050919050565b6000613647601983613f1d565b915061365282614428565b602082019050919050565b600061366a602c83613f1d565b915061367582614451565b604082019050919050565b600061368d603883613f1d565b9150613698826144a0565b604082019050919050565b60006136b0600183613f2e565b91506136bb826144ef565b600182019050919050565b60006136d3602a83613f1d565b91506136de82614518565b604082019050919050565b60006136f6602983613f1d565b915061370182614567565b604082019050919050565b6000613719602e83613f1d565b9150613724826145b6565b604082019050919050565b600061373c600283613f2e565b915061374782614605565b600282019050919050565b600061375f602083613f1d565b915061376a8261462e565b602082019050919050565b6000613782603183613f1d565b915061378d82614657565b604082019050919050565b60006137a5602c83613f1d565b91506137b0826146a6565b604082019050919050565b60006137c8602f83613f1d565b91506137d3826146f5565b604082019050919050565b60006137eb600a83613f2e565b91506137f682614744565b600a82019050919050565b600061380e602183613f1d565b91506138198261476d565b604082019050919050565b6000613831601d83613f2e565b915061383c826147bc565b601d82019050919050565b6000613854600c83613f2e565b915061385f826147e5565b600c82019050919050565b6000613877600083613f01565b91506138828261480e565b600082019050919050565b600061389a603183613f1d565b91506138a582614811565b604082019050919050565b60006138bd605a83613f2e565b91506138c882614860565b605a82019050919050565b6138dc816140ca565b82525050565b60006138ef828486613421565b91508190509392505050565b6000613908828587613421565b9150613913826136a3565b915061391f82846134e9565b9150819050949350505050565b600061393882856134b8565b915061394482846134b8565b91508190509392505050565b600061395c82866134e9565b915061396882856134b8565b915061397482846134e9565b9150819050949350505050565b600061398c826137de565b915061399882866134b8565b91506139a3826138b0565b91506139af82856134b8565b91506139ba82613847565b91506139c682846134b8565b91506139d18261372f565b9150819050949350505050565b60006139e982613824565b91506139f582846134b8565b915081905092915050565b6000613a0b8261386a565b9150819050919050565b6000602082019050613a2a6000830184613328565b92915050565b6000602082019050613a456000830184613319565b92915050565b6000608082019050613a606000830187613328565b613a6d6020830186613328565b613a7a60408301856138d3565b8181036060830152613a8c81846133bb565b905095945050505050565b60006020820190508181036000830152613ab18184613337565b905092915050565b6000602082019050613ace60008301846133ac565b92915050565b60006020820190508181036000830152613aef8184866133f4565b90509392505050565b60006020820190508181036000830152613b12818461347f565b905092915050565b60006040820190508181036000830152613b34818561347f565b9050613b436020830184613328565b9392505050565b60006040820190508181036000830152613b64818561347f565b90508181036020830152613b78818461347f565b90509392505050565b60006080820190508181036000830152613b9b818761347f565b90508181036020830152613baf818661347f565b90508181036040830152613bc3818561347f565b9050613bd260608301846138d3565b95945050505050565b60006020820190508181036000830152613bf481613568565b9050919050565b60006020820190508181036000830152613c148161358b565b9050919050565b60006020820190508181036000830152613c34816135ae565b9050919050565b60006020820190508181036000830152613c54816135d1565b9050919050565b60006020820190508181036000830152613c74816135f4565b9050919050565b60006020820190508181036000830152613c9481613617565b9050919050565b60006020820190508181036000830152613cb48161363a565b9050919050565b60006020820190508181036000830152613cd48161365d565b9050919050565b60006020820190508181036000830152613cf481613680565b9050919050565b60006020820190508181036000830152613d14816136c6565b9050919050565b60006020820190508181036000830152613d34816136e9565b9050919050565b60006020820190508181036000830152613d548161370c565b9050919050565b60006020820190508181036000830152613d7481613752565b9050919050565b60006020820190508181036000830152613d9481613775565b9050919050565b60006020820190508181036000830152613db481613798565b9050919050565b60006020820190508181036000830152613dd4816137bb565b9050919050565b60006020820190508181036000830152613df481613801565b9050919050565b60006020820190508181036000830152613e148161388d565b9050919050565b6000602082019050613e3060008301846138d3565b92915050565b6000613e40613e51565b9050613e4c8282614148565b919050565b6000604051905090565b600067ffffffffffffffff821115613e7657613e75614280565b5b613e7f826142af565b9050602081019050919050565b6000819050602082019050919050565b60008190508160005260206000209050919050565b600081519050919050565b600081519050919050565b600081519050919050565b6000602082019050919050565b600082825260208201905092915050565b600082825260208201905092915050565b600081905092915050565b600082825260208201905092915050565b600082825260208201905092915050565b600081905092915050565b6000613f44826140ca565b9150613f4f836140ca565b9250827fffffffffffffffffffffffffffffffffffffffffffffffffffffffffffffffff03821115613f8457613f836141f3565b5b828201905092915050565b6000613f9a826140ca565b9150613fa5836140ca565b925082613fb557613fb4614222565b5b828204905092915050565b6000613fcb826140ca565b9150613fd6836140ca565b9250817fffffffffffffffffffffffffffffffffffffffffffffffffffffffffffffffff048311821515161561400f5761400e6141f3565b5b828202905092915050565b6000614025826140ca565b9150614030836140ca565b925082821015614043576140426141f3565b5b828203905092915050565b6000614059826140aa565b9050919050565b600061406b826140aa565b9050919050565b60008115159050919050565b60007fffffffff0000000000000000000000000000000000000000000000000000000082169050919050565b600073ffffffffffffffffffffffffffffffffffffffff82169050919050565b6000819050919050565b82818337600083830152505050565b60005b838110156141015780820151818401526020810190506140e6565b83811115614110576000848401525b50505050565b6000600282049050600182168061412e57607f821691505b6020821081141561414257614141614251565b5b50919050565b614151826142af565b810181811067ffffffffffffffff821117156141705761416f614280565b5b80604052505050565b6000614184826140ca565b91507fffffffffffffffffffffffffffffffffffffffffffffffffffffffffffffffff8214156141b7576141b66141f3565b5b600182019050919050565b60006141cd826140ca565b91506141d8836140ca565b9250826141e8576141e7614222565b5b828206905092915050565b7f4e487b7100000000000000000000000000000000000000000000000000000000600052601160045260246000fd5b7f4e487b7100000000000000000000000000000000000000000000000000000000600052601260045260246000fd5b7f4e487b7100000000000000000000000000000000000000000000000000000000600052602260045260246000fd5b7f4e487b7100000000000000000000000000000000000000000000000000000000600052604160045260246000fd5b6000601f19601f8301169050919050565b7f4e6f7420656e6f756768206d6f6e657900000000000000000000000000000000600082015250565b7f4661696c656420746f207769746864726177206d617469630000000000000000600082015250565b7f4552433732313a207472616e7366657220746f206e6f6e20455243373231526560008201527f63656976657220696d706c656d656e7465720000000000000000000000000000602082015250565b7f4552433732313a207472616e736665722066726f6d20696e636f72726563742060008201527f6f776e6572000000000000000000000000000000000000000000000000000000602082015250565b7f4552433732313a20746f6b656e20616c7265616479206d696e74656400000000600082015250565b7f4552433732313a207472616e7366657220746f20746865207a65726f2061646460008201527f7265737300000000000000000000000000000000000000000000000000000000602082015250565b7f4552433732313a20617070726f766520746f2063616c6c657200000000000000600082015250565b7f4552433732313a206f70657261746f7220717565727920666f72206e6f6e657860008201527f697374656e7420746f6b656e0000000000000000000000000000000000000000602082015250565b7f4552433732313a20617070726f76652063616c6c6572206973206e6f74206f7760008201527f6e6572206e6f7220617070726f76656420666f7220616c6c0000000000000000602082015250565b7f2e00000000000000000000000000000000000000000000000000000000000000600082015250565b7f4552433732313a2062616c616e636520717565727920666f7220746865207a6560008201527f726f206164647265737300000000000000000000000000000000000000000000602082015250565b7f4552433732313a206f776e657220717565727920666f72206e6f6e657869737460008201527f656e7420746f6b656e0000000000000000000000000000000000000000000000602082015250565b7f45524337323155524953746f726167653a2055524920736574206f66206e6f6e60008201527f6578697374656e7420746f6b656e000000000000000000000000000000000000602082015250565b7f227d000000000000000000000000000000000000000000000000000000000000600082015250565b7f4552433732313a206d696e7420746f20746865207a65726f2061646472657373600082015250565b7f45524337323155524953746f726167653a2055524920717565727920666f722060008201527f6e6f6e6578697374656e7420746f6b656e000000000000000000000000000000602082015250565b7f4552433732313a20617070726f76656420717565727920666f72206e6f6e657860008201527f697374656e7420746f6b656e0000000000000000000000000000000000000000602082015250565b7f4552433732314d657461646174613a2055524920717565727920666f72206e6f60008201527f6e6578697374656e7420746f6b656e0000000000000000000000000000000000602082015250565b7f7b226e616d65223a202200000000000000000000000000000000000000000000600082015250565b7f4552433732313a20617070726f76616c20746f2063757272656e74206f776e6560008201527f7200000000000000000000000000000000000000000000000000000000000000602082015250565b7f646174613a6170706c69636174696f6e2f6a736f6e3b6261736536342c000000600082015250565b7f222c226c656e677468223a220000000000000000000000000000000000000000600082015250565b50565b7f4552433732313a207472616e736665722063616c6c6572206973206e6f74206f60008201527f776e6572206e6f7220617070726f766564000000000000000000000000000000602082015250565b7f222c20226465736372697074696f6e223a20224120646f6d61696e206f6e207460008201527f686520466c79206e616d652073657276696365222c2022696d616765223a202260208201527f646174613a696d6167652f7376672b786d6c3b6261736536342c000000000000604082015250565b6148de8161404e565b81146148e957600080fd5b50565b6148f581614072565b811461490057600080fd5b50565b61490c8161407e565b811461491757600080fd5b50565b614923816140ca565b811461492e57600080fd5b5056fe0a2d2d2d2d2d2d2d2d2d2d2d2d2d2d2d2d2d2d2d2d2d2d2d2d2d2d2d2d2d2d2d2d2d2d2d2d2d2d2d2d2d2d2d2d2d2d2d2d2d2d2d2d2d2d2d2d5265676973746572696e672025732e2573206f6e2074686520636f6e7472616374207769746820746f6b656e204964202564202d2d2d2d2d2d2d2d2d2d2d2d2d2d2d2d2d2d2d2d2d2d2d2d2d2d2d2d2d2d2d2d2d2d2d2d2d2d2d2d2d2d2d2d2d2d2d2d2d2d2d2d2d2d2d2d0a4142434445464748494a4b4c4d4e4f505152535455565758595a6162636465666768696a6b6c6d6e6f707172737475767778797a303132333435363738392b2f47657474696e6720616c6c206e616d65732066726f6d2074686520636f6e7472616374a2646970667358221220d6600b52171ac5d3dc0609d3aad29451d7e36edd077a90ed17199f1abb3e03d564736f6c634300080400333c73766720786d6c6e733d22687474703a2f2f7777772e77332e6f72672f323030302f737667222077696474683d2232373022206865696768743d22323730222066696c6c3d226e6f6e65223e3c706174682066696c6c3d2275726c282342292220643d224d302030683237307632373048307a222f3e3c646566733e3c66696c7465722069643d22412220636f6c6f722d696e746572706f6c6174696f6e2d66696c746572733d2273524742222066696c746572556e6974733d227573657253706163654f6e55736522206865696768743d22323730222077696474683d22323730223e3c666544726f70536861646f772064783d2230222064793d22312220737464446576696174696f6e3d22322220666c6f6f642d6f7061636974793d222e323235222077696474683d223230302522206865696768743d2232303025222f3e3c2f66696c7465723e3c2f646566733e3c7061746820643d224d37322e3836332034322e393439632d2e3636382d2e3338372d312e3432362d2e35392d322e3139372d2e3539732d312e3532392e3230342d322e3139372e35396c2d31302e30383120362e3033322d362e383520332e3933342d31302e30383120362e303332632d2e3636382e3338372d312e3432362e35392d322e3139372e3539732d312e3532392d2e3230342d322e3139372d2e35396c2d382e3031332d342e37323161342e353220342e35322030203020312d312e3538392d312e363136632d2e3338342d2e3636352d2e3539342d312e3431382d2e3630382d322e313837762d392e3331632d2e3031332d2e3737352e3138352d312e3533382e3537322d322e32303861342e323520342e323520302030203120312e3632352d312e3539356c372e3838342d342e3539632e3636382d2e33383720312e3432362d2e353920322e3139372d2e353973312e3532392e32303420322e3139372e35396c372e38383420342e353961342e353220342e353220302030203120312e35383920312e363136632e3338342e3636352e35393420312e3431382e36303820322e31383776362e3033326c362e38352d342e303635762d362e303332632e3031332d2e3737352d2e3138352d312e3533382d2e3537322d322e32303861342e323520342e32352030203020302d312e3632352d312e3539354c34312e3435362032342e3539632d2e3636382d2e3338372d312e3432362d2e35392d322e3139372d2e3539732d312e3532392e3230342d322e3139372e35396c2d31342e38363420382e36353561342e323520342e32352030203020302d312e36323520312e353935632d2e3338372e36372d2e35383520312e3433342d2e35373220322e3230387631372e343431632d2e3031332e3737352e31383520312e3533382e35373220322e32303861342e323520342e323520302030203020312e36323520312e3539356c31342e38363420382e363535632e3636382e33383720312e3432362e353920322e3139372e353973312e3532392d2e32303420322e3139372d2e35396c31302e3038312d352e39303120362e38352d342e3036352031302e3038312d352e393031632e3636382d2e33383720312e3432362d2e353920322e3139372d2e353973312e3532392e32303420322e3139372e35396c372e38383420342e353961342e353220342e353220302030203120312e35383920312e363136632e3338342e3636352e35393420312e3431382e36303820322e31383776392e333131632e3031332e3737352d2e31383520312e3533382d2e35373220322e32303861342e323520342e32352030203020312d312e36323520312e3539356c2d372e38383420342e373231632d2e3636382e3338372d312e3432362e35392d322e3139372e3539732d312e3532392d2e3230342d322e3139372d2e35396c2d372e3838342d342e353961342e353220342e35322030203020312d312e3538392d312e363136632d2e3338352d2e3636352d2e3539342d312e3431382d2e3630382d322e313837762d362e3033326c2d362e383520342e30363576362e303332632d2e3031332e3737352e31383520312e3533382e35373220322e32303861342e323520342e323520302030203020312e36323520312e3539356c31342e38363420382e363535632e3636382e33383720312e3432362e353920322e3139372e353973312e3532392d2e32303420322e3139372d2e35396c31342e3836342d382e363535632e3635372d2e33393420312e3230342d2e393520312e3538392d312e363136732e3539342d312e3431382e3630392d322e3138375635352e353338632e3031332d2e3737352d2e3138352d312e3533382d2e3537322d322e32303861342e323520342e32352030203020302d312e3632352d312e3539356c2d31342e3939332d382e3738367a222066696c6c3d2223666666222f3e3c646566733e3c6c696e6561724772616469656e742069643d2242222078313d2230222079313d2230222078323d22323730222079323d2232373022206772616469656e74556e6974733d227573657253706163654f6e557365223e3c73746f702073746f702d636f6c6f723d2223636235656565222f3e3c73746f70206f66667365743d2231222073746f702d636f6c6f723d2223306364376534222073746f702d6f7061636974793d222e3939222f3e3c2f6c696e6561724772616469656e743e3c2f646566733e3c7465787420783d2233322e352220793d223233312220666f6e742d73697a653d223237222066696c6c3d2223666666222066696c7465723d2275726c282341292220666f6e742d66616d696c793d22506c7573204a616b617274612053616e732c44656a6156752053616e732c4e6f746f20436f6c6f7220456d6f6a692c4170706c6520436f6c6f7220456d6f6a692c73616e732d73657269662220666f6e742d7765696768743d22626f6c64223e",
  "linkReferences": {},
  "deployedLinkReferences": {}
}